{
  "_format": "hh-sol-artifact-1",
  "contractName": "Token",
  "sourceName": "contracts/Token.sol",
  "abi": [
    {
      "inputs": [
        {
          "internalType": "string",
          "name": "tokenName",
          "type": "string"
        },
        {
          "internalType": "string",
          "name": "tokenSymbol",
          "type": "string"
        },
        {
          "internalType": "uint256",
          "name": "initialSupply",
          "type": "uint256"
        }
      ],
      "stateMutability": "nonpayable",
      "type": "constructor"
    },
    {
      "inputs": [
        {
          "internalType": "address",
          "name": "spender",
          "type": "address"
        },
        {
          "internalType": "uint256",
          "name": "allowance",
          "type": "uint256"
        },
        {
          "internalType": "uint256",
          "name": "needed",
          "type": "uint256"
        }
      ],
      "name": "ERC20InsufficientAllowance",
      "type": "error"
    },
    {
      "inputs": [
        {
          "internalType": "address",
          "name": "sender",
          "type": "address"
        },
        {
          "internalType": "uint256",
          "name": "balance",
          "type": "uint256"
        },
        {
          "internalType": "uint256",
          "name": "needed",
          "type": "uint256"
        }
      ],
      "name": "ERC20InsufficientBalance",
      "type": "error"
    },
    {
      "inputs": [
        {
          "internalType": "address",
          "name": "approver",
          "type": "address"
        }
      ],
      "name": "ERC20InvalidApprover",
      "type": "error"
    },
    {
      "inputs": [
        {
          "internalType": "address",
          "name": "receiver",
          "type": "address"
        }
      ],
      "name": "ERC20InvalidReceiver",
      "type": "error"
    },
    {
      "inputs": [
        {
          "internalType": "address",
          "name": "sender",
          "type": "address"
        }
      ],
      "name": "ERC20InvalidSender",
      "type": "error"
    },
    {
      "inputs": [
        {
          "internalType": "address",
          "name": "spender",
          "type": "address"
        }
      ],
      "name": "ERC20InvalidSpender",
      "type": "error"
    },
    {
      "inputs": [
        {
          "internalType": "address",
          "name": "owner",
          "type": "address"
        }
      ],
      "name": "OwnableInvalidOwner",
      "type": "error"
    },
    {
      "inputs": [
        {
          "internalType": "address",
          "name": "account",
          "type": "address"
        }
      ],
      "name": "OwnableUnauthorizedAccount",
      "type": "error"
    },
    {
      "anonymous": false,
      "inputs": [
        {
          "indexed": true,
          "internalType": "address",
          "name": "owner",
          "type": "address"
        },
        {
          "indexed": true,
          "internalType": "address",
          "name": "spender",
          "type": "address"
        },
        {
          "indexed": false,
          "internalType": "uint256",
          "name": "value",
          "type": "uint256"
        }
      ],
      "name": "Approval",
      "type": "event"
    },
    {
      "anonymous": false,
      "inputs": [
        {
          "indexed": true,
          "internalType": "address",
          "name": "previousOwner",
          "type": "address"
        },
        {
          "indexed": true,
          "internalType": "address",
          "name": "newOwner",
          "type": "address"
        }
      ],
      "name": "OwnershipTransferred",
      "type": "event"
    },
    {
      "anonymous": false,
      "inputs": [
        {
          "indexed": true,
          "internalType": "address",
          "name": "from",
          "type": "address"
        },
        {
          "indexed": true,
          "internalType": "address",
          "name": "to",
          "type": "address"
        },
        {
          "indexed": false,
          "internalType": "uint256",
          "name": "value",
          "type": "uint256"
        }
      ],
      "name": "Transfer",
      "type": "event"
    },
    {
      "inputs": [
        {
          "internalType": "address",
          "name": "owner",
          "type": "address"
        },
        {
          "internalType": "address",
          "name": "spender",
          "type": "address"
        }
      ],
      "name": "allowance",
      "outputs": [
        {
          "internalType": "uint256",
          "name": "",
          "type": "uint256"
        }
      ],
      "stateMutability": "view",
      "type": "function"
    },
    {
      "inputs": [
        {
          "internalType": "address",
          "name": "spender",
          "type": "address"
        },
        {
          "internalType": "uint256",
          "name": "value",
          "type": "uint256"
        }
      ],
      "name": "approve",
      "outputs": [
        {
          "internalType": "bool",
          "name": "",
          "type": "bool"
        }
      ],
      "stateMutability": "nonpayable",
      "type": "function"
    },
    {
      "inputs": [
        {
          "internalType": "address",
          "name": "from",
          "type": "address"
        },
        {
          "internalType": "address",
          "name": "to",
          "type": "address"
        },
        {
          "internalType": "uint256",
          "name": "amount",
          "type": "uint256"
        }
      ],
      "name": "approveAndTransferFrom",
      "outputs": [],
      "stateMutability": "nonpayable",
      "type": "function"
    },
    {
      "inputs": [
        {
          "internalType": "address",
          "name": "account",
          "type": "address"
        }
      ],
      "name": "balanceOf",
      "outputs": [
        {
          "internalType": "uint256",
          "name": "",
          "type": "uint256"
        }
      ],
      "stateMutability": "view",
      "type": "function"
    },
    {
      "inputs": [
        {
          "internalType": "address[]",
          "name": "recipients",
          "type": "address[]"
        },
        {
          "internalType": "uint256[]",
          "name": "values",
          "type": "uint256[]"
        }
      ],
      "name": "bulkTransfer",
      "outputs": [],
      "stateMutability": "payable",
      "type": "function"
    },
    {
      "inputs": [
        {
          "internalType": "uint256",
          "name": "amount",
          "type": "uint256"
        }
      ],
      "name": "burn",
      "outputs": [],
      "stateMutability": "nonpayable",
      "type": "function"
    },
    {
      "inputs": [
        {
          "internalType": "address",
          "name": "account",
          "type": "address"
        },
        {
          "internalType": "uint256",
          "name": "amount",
          "type": "uint256"
        }
      ],
      "name": "burnFrom",
      "outputs": [],
      "stateMutability": "nonpayable",
      "type": "function"
    },
    {
      "inputs": [],
      "name": "decimals",
      "outputs": [
        {
          "internalType": "uint8",
          "name": "",
          "type": "uint8"
        }
      ],
      "stateMutability": "view",
      "type": "function"
    },
    {
      "inputs": [],
      "name": "getOwner",
      "outputs": [
        {
          "internalType": "address",
          "name": "",
          "type": "address"
        }
      ],
      "stateMutability": "view",
      "type": "function"
    },
    {
      "inputs": [],
      "name": "isPaused",
      "outputs": [
        {
          "internalType": "bool",
          "name": "",
          "type": "bool"
        }
      ],
      "stateMutability": "view",
      "type": "function"
    },
    {
      "inputs": [
        {
          "internalType": "address",
          "name": "to",
          "type": "address"
        },
        {
          "internalType": "uint256",
          "name": "amount",
          "type": "uint256"
        }
      ],
      "name": "mint",
      "outputs": [],
      "stateMutability": "nonpayable",
      "type": "function"
    },
    {
      "inputs": [],
      "name": "name",
      "outputs": [
        {
          "internalType": "string",
          "name": "",
          "type": "string"
        }
      ],
      "stateMutability": "view",
      "type": "function"
    },
    {
      "inputs": [],
      "name": "owner",
      "outputs": [
        {
          "internalType": "address",
          "name": "",
          "type": "address"
        }
      ],
      "stateMutability": "view",
      "type": "function"
    },
    {
      "inputs": [],
      "name": "pause",
      "outputs": [],
      "stateMutability": "nonpayable",
      "type": "function"
    },
    {
      "inputs": [],
      "name": "renounceOwnership",
      "outputs": [],
      "stateMutability": "nonpayable",
      "type": "function"
    },
    {
      "inputs": [],
      "name": "symbol",
      "outputs": [
        {
          "internalType": "string",
          "name": "",
          "type": "string"
        }
      ],
      "stateMutability": "view",
      "type": "function"
    },
    {
      "inputs": [],
      "name": "totalSupply",
      "outputs": [
        {
          "internalType": "uint256",
          "name": "",
          "type": "uint256"
        }
      ],
      "stateMutability": "view",
      "type": "function"
    },
    {
      "inputs": [
        {
          "internalType": "address",
          "name": "to",
          "type": "address"
        },
        {
          "internalType": "uint256",
          "name": "value",
          "type": "uint256"
        }
      ],
      "name": "transfer",
      "outputs": [
        {
          "internalType": "bool",
          "name": "",
          "type": "bool"
        }
      ],
      "stateMutability": "nonpayable",
      "type": "function"
    },
    {
      "inputs": [
        {
          "internalType": "address",
          "name": "from",
          "type": "address"
        },
        {
          "internalType": "address",
          "name": "to",
          "type": "address"
        },
        {
          "internalType": "uint256",
          "name": "value",
          "type": "uint256"
        }
      ],
      "name": "transferFrom",
      "outputs": [
        {
          "internalType": "bool",
          "name": "",
          "type": "bool"
        }
      ],
      "stateMutability": "nonpayable",
      "type": "function"
    },
    {
      "inputs": [
        {
          "internalType": "address",
          "name": "newOwner",
          "type": "address"
        }
      ],
      "name": "transferOwnership",
      "outputs": [],
      "stateMutability": "nonpayable",
      "type": "function"
    },
    {
      "inputs": [],
      "name": "unpause",
      "outputs": [],
      "stateMutability": "nonpayable",
      "type": "function"
    }
  ],
  "bytecode": "0x608060405234801561001057600080fd5b5060405161254c38038061254c83398181016040528101906100329190610631565b61004061010b60201b60201c565b8383816003908161005191906108d3565b50806004908161006191906108d3565b505050600073ffffffffffffffffffffffffffffffffffffffff168173ffffffffffffffffffffffffffffffffffffffff16036100d65760006040517f1e4fbdf70000000000000000000000000000000000000000000000000000000081526004016100cd91906109e6565b60405180910390fd5b6100e58161011360201b60201c565b506101036100f761010b60201b60201c565b826101d960201b60201c565b505050610ac5565b600033905090565b6000600560009054906101000a900473ffffffffffffffffffffffffffffffffffffffff16905081600560006101000a81548173ffffffffffffffffffffffffffffffffffffffff021916908373ffffffffffffffffffffffffffffffffffffffff1602179055508173ffffffffffffffffffffffffffffffffffffffff168173ffffffffffffffffffffffffffffffffffffffff167f8be0079c531659141344cd1fd0a4f28419497f9722a3daafe3b4186f6b6457e060405160405180910390a35050565b600073ffffffffffffffffffffffffffffffffffffffff168273ffffffffffffffffffffffffffffffffffffffff160361024b5760006040517fec442f0500000000000000000000000000000000000000000000000000000000815260040161024291906109e6565b60405180910390fd5b61025d6000838361026160201b60201c565b5050565b600073ffffffffffffffffffffffffffffffffffffffff168373ffffffffffffffffffffffffffffffffffffffff16036102b35780600260008282546102a79190610a30565b92505081905550610386565b60008060008573ffffffffffffffffffffffffffffffffffffffff1673ffffffffffffffffffffffffffffffffffffffff1681526020019081526020016000205490508181101561033f578381836040517fe450d38c00000000000000000000000000000000000000000000000000000000815260040161033693929190610a73565b60405180910390fd5b8181036000808673ffffffffffffffffffffffffffffffffffffffff1673ffffffffffffffffffffffffffffffffffffffff16815260200190815260200160002081905550505b600073ffffffffffffffffffffffffffffffffffffffff168273ffffffffffffffffffffffffffffffffffffffff16036103cf578060026000828254039250508190555061041c565b806000808473ffffffffffffffffffffffffffffffffffffffff1673ffffffffffffffffffffffffffffffffffffffff168152602001908152602001600020600082825401925050819055505b8173ffffffffffffffffffffffffffffffffffffffff168373ffffffffffffffffffffffffffffffffffffffff167fddf252ad1be2c89b69c2b068fc378daa952ba7f163c4a11628f55a4df523b3ef836040516104799190610aaa565b60405180910390a3505050565b6000604051905090565b600080fd5b600080fd5b600080fd5b600080fd5b6000601f19601f8301169050919050565b7f4e487b7100000000000000000000000000000000000000000000000000000000600052604160045260246000fd5b6104ed826104a4565b810181811067ffffffffffffffff8211171561050c5761050b6104b5565b5b80604052505050565b600061051f610486565b905061052b82826104e4565b919050565b600067ffffffffffffffff82111561054b5761054a6104b5565b5b610554826104a4565b9050602081019050919050565b60005b8381101561057f578082015181840152602081019050610564565b60008484015250505050565b600061059e61059984610530565b610515565b9050828152602081018484840111156105ba576105b961049f565b5b6105c5848285610561565b509392505050565b600082601f8301126105e2576105e161049a565b5b81516105f284826020860161058b565b91505092915050565b6000819050919050565b61060e816105fb565b811461061957600080fd5b50565b60008151905061062b81610605565b92915050565b60008060006060848603121561064a57610649610490565b5b600084015167ffffffffffffffff81111561066857610667610495565b5b610674868287016105cd565b935050602084015167ffffffffffffffff81111561069557610694610495565b5b6106a1868287016105cd565b92505060406106b28682870161061c565b9150509250925092565b600081519050919050565b7f4e487b7100000000000000000000000000000000000000000000000000000000600052602260045260246000fd5b6000600282049050600182168061070e57607f821691505b602082108103610721576107206106c7565b5b50919050565b60008190508160005260206000209050919050565b60006020601f8301049050919050565b600082821b905092915050565b6000600883026107897fffffffffffffffffffffffffffffffffffffffffffffffffffffffffffffffff8261074c565b610793868361074c565b95508019841693508086168417925050509392505050565b6000819050919050565b60006107d06107cb6107c6846105fb565b6107ab565b6105fb565b9050919050565b6000819050919050565b6107ea836107b5565b6107fe6107f6826107d7565b848454610759565b825550505050565b600090565b610813610806565b61081e8184846107e1565b505050565b5b818110156108425761083760008261080b565b600181019050610824565b5050565b601f8211156108875761085881610727565b6108618461073c565b81016020851015610870578190505b61088461087c8561073c565b830182610823565b50505b505050565b600082821c905092915050565b60006108aa6000198460080261088c565b1980831691505092915050565b60006108c38383610899565b9150826002028217905092915050565b6108dc826106bc565b67ffffffffffffffff8111156108f5576108f46104b5565b5b6108ff82546106f6565b61090a828285610846565b600060209050601f83116001811461093d576000841561092b578287015190505b61093585826108b7565b86555061099d565b601f19841661094b86610727565b60005b828110156109735784890151825560018201915060208501945060208101905061094e565b86831015610990578489015161098c601f891682610899565b8355505b6001600288020188555050505b505050505050565b600073ffffffffffffffffffffffffffffffffffffffff82169050919050565b60006109d0826109a5565b9050919050565b6109e0816109c5565b82525050565b60006020820190506109fb60008301846109d7565b92915050565b7f4e487b7100000000000000000000000000000000000000000000000000000000600052601160045260246000fd5b6000610a3b826105fb565b9150610a46836105fb565b9250828201905080821115610a5e57610a5d610a01565b5b92915050565b610a6d816105fb565b82525050565b6000606082019050610a8860008301866109d7565b610a956020830185610a64565b610aa26040830184610a64565b949350505050565b6000602082019050610abf6000830184610a64565b92915050565b611a7880610ad46000396000f3fe60806040526004361061012a5760003560e01c806370a08231116100ab5780638da5cb5b1161006f5780638da5cb5b1461039757806395d89b41146103c2578063a9059cbb146103ed578063b187bd261461042a578063dd62ed3e14610455578063f2fde38b146104925761012a565b806370a08231146102d8578063715018a61461031557806379cc67901461032c5780638456cb5914610355578063893d20e81461036c5761012a565b8063288c9c9d116100f2578063288c9c9d1461021b578063313ce567146102445780633f4ba83a1461026f57806340c10f191461028657806342966c68146102af5761012a565b806306fdde031461012f578063095ea7b31461015a578063153a1f3e1461019757806318160ddd146101b357806323b872dd146101de575b600080fd5b34801561013b57600080fd5b506101446104bb565b6040516101519190611333565b60405180910390f35b34801561016657600080fd5b50610181600480360381019061017c91906113f3565b61054d565b60405161018e919061144e565b60405180910390f35b6101b160048036038101906101ac9190611524565b610570565b005b3480156101bf57600080fd5b506101c8610757565b6040516101d591906115b4565b60405180910390f35b3480156101ea57600080fd5b50610205600480360381019061020091906115cf565b610761565b604051610212919061144e565b60405180910390f35b34801561022757600080fd5b50610242600480360381019061023d91906115cf565b610790565b005b34801561025057600080fd5b506102596107b3565b604051610266919061163e565b60405180910390f35b34801561027b57600080fd5b506102846107bc565b005b34801561029257600080fd5b506102ad60048036038101906102a891906113f3565b6107e1565b005b3480156102bb57600080fd5b506102d660048036038101906102d19190611659565b6107f7565b005b3480156102e457600080fd5b506102ff60048036038101906102fa9190611686565b61080b565b60405161030c91906115b4565b60405180910390f35b34801561032157600080fd5b5061032a610853565b005b34801561033857600080fd5b50610353600480360381019061034e91906113f3565b610867565b005b34801561036157600080fd5b5061036a61087d565b005b34801561037857600080fd5b506103816108a2565b60405161038e91906116c2565b60405180910390f35b3480156103a357600080fd5b506103ac6108b1565b6040516103b991906116c2565b60405180910390f35b3480156103ce57600080fd5b506103d76108db565b6040516103e49190611333565b60405180910390f35b3480156103f957600080fd5b50610414600480360381019061040f91906113f3565b61096d565b604051610421919061144e565b60405180910390f35b34801561043657600080fd5b5061043f610990565b60405161044c919061144e565b60405180910390f35b34801561046157600080fd5b5061047c600480360381019061047791906116dd565b6109a7565b60405161048991906115b4565b60405180910390f35b34801561049e57600080fd5b506104b960048036038101906104b49190611686565b610a2e565b005b6060600380546104ca9061174c565b80601f01602080910402602001604051908101604052809291908181526020018280546104f69061174c565b80156105435780601f1061051857610100808354040283529160200191610543565b820191906000526020600020905b81548152906001019060200180831161052657829003601f168201915b5050505050905090565b600080610558610ab4565b9050610565818585610abc565b600191505092915050565b610578610ace565b8181905084849050146105c0576040517f08c379a00000000000000000000000000000000000000000000000000000000081526004016105b7906117ef565b60405180910390fd5b6000805b83839050811015610603578383828181106105e2576105e161180f565b5b90506020020135826105f4919061186d565b915080806001019150506105c4565b5034811115610647576040517f08c379a000000000000000000000000000000000000000000000000000000000815260040161063e90611913565b60405180910390fd5b60005b8585905081101561074f57600086868381811061066a5761066961180f565b5b905060200201602081019061067f9190611686565b73ffffffffffffffffffffffffffffffffffffffff168585848181106106a8576106a761180f565b5b905060200201356040516106bb90611964565b60006040518083038185875af1925050503d80600081146106f8576040519150601f19603f3d011682016040523d82523d6000602084013e6106fd565b606091505b5050905080610741576040517f08c379a0000000000000000000000000000000000000000000000000000000008152600401610738906119eb565b60405180910390fd5b50808060010191505061064a565b505050505050565b6000600254905090565b60008061076c610ab4565b9050610779858285610b55565b610784858585610be9565b60019150509392505050565b6107a28361079c610ab4565b83610abc565b6107ad838383610761565b50505050565b60006012905090565b6107c4610ace565b6000600560146101000a81548160ff021916908315150217905550565b6107e9610ace565b6107f38282610cdd565b5050565b610808610802610ab4565b82610d5f565b50565b60008060008373ffffffffffffffffffffffffffffffffffffffff1673ffffffffffffffffffffffffffffffffffffffff168152602001908152602001600020549050919050565b61085b610ace565b6108656000610de1565b565b61086f610ace565b6108798282610d5f565b5050565b610885610ace565b6001600560146101000a81548160ff021916908315150217905550565b60006108ac6108b1565b905090565b6000600560009054906101000a900473ffffffffffffffffffffffffffffffffffffffff16905090565b6060600480546108ea9061174c565b80601f01602080910402602001604051908101604052809291908181526020018280546109169061174c565b80156109635780601f1061093857610100808354040283529160200191610963565b820191906000526020600020905b81548152906001019060200180831161094657829003601f168201915b5050505050905090565b600080610978610ab4565b9050610985818585610be9565b600191505092915050565b6000600560149054906101000a900460ff16905090565b6000600160008473ffffffffffffffffffffffffffffffffffffffff1673ffffffffffffffffffffffffffffffffffffffff16815260200190815260200160002060008373ffffffffffffffffffffffffffffffffffffffff1673ffffffffffffffffffffffffffffffffffffffff16815260200190815260200160002054905092915050565b610a36610ace565b600073ffffffffffffffffffffffffffffffffffffffff168173ffffffffffffffffffffffffffffffffffffffff1603610aa85760006040517f1e4fbdf7000000000000000000000000000000000000000000000000000000008152600401610a9f91906116c2565b60405180910390fd5b610ab181610de1565b50565b600033905090565b610ac98383836001610ea7565b505050565b610ad6610ab4565b73ffffffffffffffffffffffffffffffffffffffff16610af46108b1565b73ffffffffffffffffffffffffffffffffffffffff1614610b5357610b17610ab4565b6040517f118cdaa7000000000000000000000000000000000000000000000000000000008152600401610b4a91906116c2565b60405180910390fd5b565b6000610b6184846109a7565b90507fffffffffffffffffffffffffffffffffffffffffffffffffffffffffffffffff8114610be35781811015610bd3578281836040517ffb8f41b2000000000000000000000000000000000000000000000000000000008152600401610bca93929190611a0b565b60405180910390fd5b610be284848484036000610ea7565b5b50505050565b600073ffffffffffffffffffffffffffffffffffffffff168373ffffffffffffffffffffffffffffffffffffffff1603610c5b5760006040517f96c6fd1e000000000000000000000000000000000000000000000000000000008152600401610c5291906116c2565b60405180910390fd5b600073ffffffffffffffffffffffffffffffffffffffff168273ffffffffffffffffffffffffffffffffffffffff1603610ccd5760006040517fec442f05000000000000000000000000000000000000000000000000000000008152600401610cc491906116c2565b60405180910390fd5b610cd883838361107e565b505050565b600073ffffffffffffffffffffffffffffffffffffffff168273ffffffffffffffffffffffffffffffffffffffff1603610d4f5760006040517fec442f05000000000000000000000000000000000000000000000000000000008152600401610d4691906116c2565b60405180910390fd5b610d5b6000838361107e565b5050565b600073ffffffffffffffffffffffffffffffffffffffff168273ffffffffffffffffffffffffffffffffffffffff1603610dd15760006040517f96c6fd1e000000000000000000000000000000000000000000000000000000008152600401610dc891906116c2565b60405180910390fd5b610ddd8260008361107e565b5050565b6000600560009054906101000a900473ffffffffffffffffffffffffffffffffffffffff16905081600560006101000a81548173ffffffffffffffffffffffffffffffffffffffff021916908373ffffffffffffffffffffffffffffffffffffffff1602179055508173ffffffffffffffffffffffffffffffffffffffff168173ffffffffffffffffffffffffffffffffffffffff167f8be0079c531659141344cd1fd0a4f28419497f9722a3daafe3b4186f6b6457e060405160405180910390a35050565b600073ffffffffffffffffffffffffffffffffffffffff168473ffffffffffffffffffffffffffffffffffffffff1603610f195760006040517fe602df05000000000000000000000000000000000000000000000000000000008152600401610f1091906116c2565b60405180910390fd5b600073ffffffffffffffffffffffffffffffffffffffff168373ffffffffffffffffffffffffffffffffffffffff1603610f8b5760006040517f94280d62000000000000000000000000000000000000000000000000000000008152600401610f8291906116c2565b60405180910390fd5b81600160008673ffffffffffffffffffffffffffffffffffffffff1673ffffffffffffffffffffffffffffffffffffffff16815260200190815260200160002060008573ffffffffffffffffffffffffffffffffffffffff1673ffffffffffffffffffffffffffffffffffffffff168152602001908152602001600020819055508015611078578273ffffffffffffffffffffffffffffffffffffffff168473ffffffffffffffffffffffffffffffffffffffff167f8c5be1e5ebec7d5bd14f71427d1e84f3dd0314c0f7b2291e5b200ac8c7c3b9258460405161106f91906115b4565b60405180910390a35b50505050565b600073ffffffffffffffffffffffffffffffffffffffff168373ffffffffffffffffffffffffffffffffffffffff16036110d05780600260008282546110c4919061186d565b925050819055506111a3565b60008060008573ffffffffffffffffffffffffffffffffffffffff1673ffffffffffffffffffffffffffffffffffffffff1681526020019081526020016000205490508181101561115c578381836040517fe450d38c00000000000000000000000000000000000000000000000000000000815260040161115393929190611a0b565b60405180910390fd5b8181036000808673ffffffffffffffffffffffffffffffffffffffff1673ffffffffffffffffffffffffffffffffffffffff16815260200190815260200160002081905550505b600073ffffffffffffffffffffffffffffffffffffffff168273ffffffffffffffffffffffffffffffffffffffff16036111ec5780600260008282540392505081905550611239565b806000808473ffffffffffffffffffffffffffffffffffffffff1673ffffffffffffffffffffffffffffffffffffffff168152602001908152602001600020600082825401925050819055505b8173ffffffffffffffffffffffffffffffffffffffff168373ffffffffffffffffffffffffffffffffffffffff167fddf252ad1be2c89b69c2b068fc378daa952ba7f163c4a11628f55a4df523b3ef8360405161129691906115b4565b60405180910390a3505050565b600081519050919050565b600082825260208201905092915050565b60005b838110156112dd5780820151818401526020810190506112c2565b60008484015250505050565b6000601f19601f8301169050919050565b6000611305826112a3565b61130f81856112ae565b935061131f8185602086016112bf565b611328816112e9565b840191505092915050565b6000602082019050818103600083015261134d81846112fa565b905092915050565b600080fd5b600080fd5b600073ffffffffffffffffffffffffffffffffffffffff82169050919050565b600061138a8261135f565b9050919050565b61139a8161137f565b81146113a557600080fd5b50565b6000813590506113b781611391565b92915050565b6000819050919050565b6113d0816113bd565b81146113db57600080fd5b50565b6000813590506113ed816113c7565b92915050565b6000806040838503121561140a57611409611355565b5b6000611418858286016113a8565b9250506020611429858286016113de565b9150509250929050565b60008115159050919050565b61144881611433565b82525050565b6000602082019050611463600083018461143f565b92915050565b600080fd5b600080fd5b600080fd5b60008083601f84011261148e5761148d611469565b5b8235905067ffffffffffffffff8111156114ab576114aa61146e565b5b6020830191508360208202830111156114c7576114c6611473565b5b9250929050565b60008083601f8401126114e4576114e3611469565b5b8235905067ffffffffffffffff8111156115015761150061146e565b5b60208301915083602082028301111561151d5761151c611473565b5b9250929050565b6000806000806040858703121561153e5761153d611355565b5b600085013567ffffffffffffffff81111561155c5761155b61135a565b5b61156887828801611478565b9450945050602085013567ffffffffffffffff81111561158b5761158a61135a565b5b611597878288016114ce565b925092505092959194509250565b6115ae816113bd565b82525050565b60006020820190506115c960008301846115a5565b92915050565b6000806000606084860312156115e8576115e7611355565b5b60006115f6868287016113a8565b9350506020611607868287016113a8565b9250506040611618868287016113de565b9150509250925092565b600060ff82169050919050565b61163881611622565b82525050565b6000602082019050611653600083018461162f565b92915050565b60006020828403121561166f5761166e611355565b5b600061167d848285016113de565b91505092915050565b60006020828403121561169c5761169b611355565b5b60006116aa848285016113a8565b91505092915050565b6116bc8161137f565b82525050565b60006020820190506116d760008301846116b3565b92915050565b600080604083850312156116f4576116f3611355565b5b6000611702858286016113a8565b9250506020611713858286016113a8565b9150509250929050565b7f4e487b7100000000000000000000000000000000000000000000000000000000600052602260045260246000fd5b6000600282049050600182168061176457607f821691505b6020821081036117775761177661171d565b5b50919050565b7f526563697069656e747320616e642076616c75657320617272617973206d757360008201527f742068617665207468652073616d65206c656e6774682e000000000000000000602082015250565b60006117d96037836112ae565b91506117e48261177d565b604082019050919050565b60006020820190508181036000830152611808816117cc565b9050919050565b7f4e487b7100000000000000000000000000000000000000000000000000000000600052603260045260246000fd5b7f4e487b7100000000000000000000000000000000000000000000000000000000600052601160045260246000fd5b6000611878826113bd565b9150611883836113bd565b925082820190508082111561189b5761189a61183e565b5b92915050565b7f496e73756666696369656e742045746865722070726f766964656420666f722060008201527f746865207472616e736665722e00000000000000000000000000000000000000602082015250565b60006118fd602d836112ae565b9150611908826118a1565b604082019050919050565b6000602082019050818103600083015261192c816118f0565b9050919050565b600081905092915050565b50565b600061194e600083611933565b91506119598261193e565b600082019050919050565b600061196f82611941565b9150819050919050565b7f5472616e73666572206661696c656420666f72206f6e65206f72206d6f72652060008201527f726563697069656e74732e000000000000000000000000000000000000000000602082015250565b60006119d5602b836112ae565b91506119e082611979565b604082019050919050565b60006020820190508181036000830152611a04816119c8565b9050919050565b6000606082019050611a2060008301866116b3565b611a2d60208301856115a5565b611a3a60408301846115a5565b94935050505056fea2646970667358221220763647122b7747b32cd7cfeb5fbca46f4e8c536dcec0258b6d7dbdbef1d7373964736f6c634300081b0033",
  "linkReferences": {},
  "deployedLinkReferences": {}
}