{
  "_format": "hh-sol-artifact-1",
  "contractName": "BulkTransfer",
  "sourceName": "contracts/BulkTransfar.sol",
  "abi": [
    {
      "inputs": [
        {
          "internalType": "address[]",
          "name": "recipients",
          "type": "address[]"
        },
        {
          "internalType": "uint256[]",
          "name": "amounts",
          "type": "uint256[]"
        }
      ],
      "name": "bulkSend",
      "outputs": [],
      "stateMutability": "payable",
      "type": "function"
    }
  ],
  "bytecode": "0x6080604052348015600f57600080fd5b506105448061001f6000396000f3fe60806040526004361061001e5760003560e01c8063d27d3e8814610023575b600080fd5b61003d6004803603810190610038919061027d565b61003f565b005b818190508484905014610087576040517f08c379a000000000000000000000000000000000000000000000000000000000815260040161007e9061035b565b60405180910390fd5b6000805b838390508110156100ca578383828181106100a9576100a861037b565b5b90506020020135826100bb91906103e3565b9150808060010191505061008b565b508034101561010e576040517f08c379a000000000000000000000000000000000000000000000000000000000815260040161010590610463565b60405180910390fd5b60005b858590508110156101b05785858281811061012f5761012e61037b565b5b905060200201602081019061014491906104e1565b73ffffffffffffffffffffffffffffffffffffffff166108fc8585848181106101705761016f61037b565b5b905060200201359081150290604051600060405180830381858888f193505050501580156101a2573d6000803e3d6000fd5b508080600101915050610111565b505050505050565b600080fd5b600080fd5b600080fd5b600080fd5b600080fd5b60008083601f8401126101e7576101e66101c2565b5b8235905067ffffffffffffffff811115610204576102036101c7565b5b6020830191508360208202830111156102205761021f6101cc565b5b9250929050565b60008083601f84011261023d5761023c6101c2565b5b8235905067ffffffffffffffff81111561025a576102596101c7565b5b602083019150836020820283011115610276576102756101cc565b5b9250929050565b60008060008060408587031215610297576102966101b8565b5b600085013567ffffffffffffffff8111156102b5576102b46101bd565b5b6102c1878288016101d1565b9450945050602085013567ffffffffffffffff8111156102e4576102e36101bd565b5b6102f087828801610227565b925092505092959194509250565b600082825260208201905092915050565b7f4d69736d61746368656420617272617973000000000000000000000000000000600082015250565b60006103456011836102fe565b91506103508261030f565b602082019050919050565b6000602082019050818103600083015261037481610338565b9050919050565b7f4e487b7100000000000000000000000000000000000000000000000000000000600052603260045260246000fd5b6000819050919050565b7f4e487b7100000000000000000000000000000000000000000000000000000000600052601160045260246000fd5b60006103ee826103aa565b91506103f9836103aa565b9250828201905080821115610411576104106103b4565b5b92915050565b7f496e73756666696369656e742066756e64730000000000000000000000000000600082015250565b600061044d6012836102fe565b915061045882610417565b602082019050919050565b6000602082019050818103600083015261047c81610440565b9050919050565b600073ffffffffffffffffffffffffffffffffffffffff82169050919050565b60006104ae82610483565b9050919050565b6104be816104a3565b81146104c957600080fd5b50565b6000813590506104db816104b5565b92915050565b6000602082840312156104f7576104f66101b8565b5b6000610505848285016104cc565b9150509291505056fea2646970667358221220e774cc6d43a3f651caad0044a3189f0a92230e5b8305b1d4aea0a5b8414eeb8f64736f6c634300081b0033",
  "linkReferences": {},
  "deployedLinkReferences": {}
}